:020000040800F2
:1000000000000220C9410008751300087D13000894
:100010007F1300088113000883130008000000000C
:100020000000000000000000000000008513000830
:100030008713000800000000891300088B130008D4
:100040001942000819420008194200081942000824
:100050001942000819420008194200081942000814
:100060001942000819420008194200081942000804
:1000700019420008194200081942000819420008F4
:100080001942000819420008951300081942000897
:1000900019420008194200081942000819420008D4
:1000A00019420008A5130008194200081942000867
:1000B00019420008194200081942000819420008B4
:1000C00019420008194200081942000819420008A4
:1000D0001942000819420008194200081942000894
:1000E0001942000819420008194200081942000884
:1000F0001942000819420008194200081942000874
:100100001942000819420008194200081942000863
:100110001942000819420008194200081942000853
:10012000B5130008194200081942000819420008D6
:1001300019420008000000000000000019420008F9
:100140001942000819420008194200081942000823
:100150001942000819420008194200081942000813
:100160001942000819420008194200081942000803
:1001700019420008194200080000000000000000B9
:080180001942000819420008B1
:1001880010B5054C237833B9044B13B10448AFF3C9
:1001980000800123237010BD3C00002000000000F7
:1001A8007442000808B5034B1BB103490348AFF379
:1001B800008008BD000000004000002074420008D4
:1001C80081F0004102E000BF83F0004330B54FEA00
:1001D80041044FEA430594EA050F08BF90EA020F6D
:1001E8001FBF54EA000C55EA020C7FEA645C7FEA00
:1001F800655C00F0E2804FEA5454D4EB5555B8BF23
:100208006D420CDD2C4480EA020281EA030382EA93
:10021800000083EA010180EA020281EA0303362D25
:1002280088BF30BD11F0004F4FEA01314FF4801CF8
:100238004CEA113102D0404261EB410113F0004F0A
:100248004FEA03334CEA133302D0524263EB4303C1
:1002580094EA050F00F0A780A4F10104D5F1200E5F
:100268000DDB02FA0EFC22FA05F2801841F10001BA
:1002780003FA0EF2801843FA05F359410EE0A5F18E
:1002880020050EF1200E012A03FA0EFC28BF4CF0BF
:10029800020C43FA05F3C01851EBE37101F0004575
:1002A80007D54FF0000EDCF1000C7EEB00006EEB82
:1002B8000101B1F5801F1BD3B1F5001F0CD349080C
:1002C8005FEA30004FEA3C0C04F101044FEA445263
:1002D80012F5800F80F09A80BCF1004F08BF5FEAEA
:1002E800500C50F1000041EB045141EA050130BDCA
:1002F8005FEA4C0C404141EB010111F4801FA4F16D
:100308000104E9D191F0000F04BF01460020B1FAC1
:1003180081F308BF2033A3F10B03B3F120020CDAF9
:100328000C3208DD02F1140CC2F10C0201FA0CF0D7
:1003380021FA02F10CE002F11402D8BFC2F1200C3C
:1003480001FA02F120FA0CFCDCBF41EA0C019040F2
:10035800E41AA2BF01EB0451294330BD6FEA04043B
:100368001F3C1CDA0C340EDC04F11404C4F1200226
:1003780020FA04F001FA02F340EA030021FA04F338
:1003880045EA030130BDC4F10C04C4F1200220FA8F
:1003980002F001FA04F340EA0300294630BD21FACD
:1003A80004F0294630BD94F0000F83F4801306BF93
:1003B80081F480110134013D4EE77FEA645C18BF87
:1003C8007FEA655C29D094EA050F08BF90EA020F1E
:1003D80005D054EA000C04BF1946104630BD91EA16
:1003E800030F1EBF0021002030BD5FEA545C05D119
:1003F8004000494128BF41F0004130BD14F5800458
:100408003CBF01F5801130BD01F0004545F0FE41CB
:1004180041F470014FF0000030BD7FEA645C1ABF00
:10042800194610467FEA655C1CBF0B46024650EA37
:10043800013406BF52EA033591EA030F41F4002163
:1004480030BD00BF90F0000F04BF0021704730B5E9
:100458004FF4806404F132044FF000054FF00001BE
:1004680050E700BF90F0000F04BF0021704730B57F
:100478004FF4806404F1320410F0004548BF404254
:100488004FF000013EE700BF42004FEAE2014FEAA9
:1004980031014FEA02701FBF12F07F4393F07F4F84
:1004A80081F06051704732F07F4208BF704793F087
:1004B8007F4F04BF41F40021704730B54FF460749A
:1004C80001F0004521F000411CE700BF50EA01029D
:1004D80008BF704730B54FF000050AE050EA010246
:1004E80008BF704730B511F0004502D5404261EBB6
:1004F80041014FF4806404F132045FEA915C3FF4F7
:10050800D8AE4FF003025FEADC0C18BF03325FEA93
:10051800DC0C18BF033202EBDC02C2F1200300FA44
:1005280003FC20FA02F001FA03FE40EA0E0021FA69
:1005380002F11444BDE600BF70B54FF0FF0C4CF457
:10054800E06C1CEA11541DBF1CEA135594EA0C0F09
:1005580095EA0C0F00F0DEF82C4481EA030621EA44
:100568004C5123EA4C5350EA013518BF52EA03357F
:1005780041F4801143F4801338D0A0FB02CE4FF031
:100588000005E1FB02E506F00042E0FB03E54FF061
:100598000006E1FB03569CF0000F18BF4EF0010E59
:1005A800A4F1FF04B6F5007F64F5407404D25FEA55
:1005B8004E0E6D4146EB060642EAC62141EA555108
:1005C8004FEAC52040EA5E504FEACE2EB4F1FD0C4A
:1005D80088BFBCF5E06F1ED8BEF1004F08BF5FEAC8
:1005E800500E50F1000041EB045170BD06F000467A
:1005F80046EA010140EA020081EA0301B4EB5C0427
:10060800C2BFD4EB0C0541EA045170BD41F480111E
:100618004FF0000E013C00F3AB8014F1360FDEBF43
:10062800002001F0004170BDC4F10004203C35DA1F
:100638000C341BDC04F11404C4F1200500FA05F3A2
:1006480020FA04F001FA05F240EA020001F0004243
:1006580021F0004110EBD37021FA04F642EB0601B9
:100668005EEA430E08BF20EAD37070BDC4F10C04E3
:10067800C4F1200500FA04F320FA05F001FA04F2A7
:1006880040EA020001F0004110EBD37041F1000193
:100698005EEA430E08BF20EAD37070BDC4F120059E
:1006A80000FA05F24EEA020E20FA04F301FA05F206
:1006B80043EA020321FA04F001F0004121FA04F2AE
:1006C80020EA020000EBD3705EEA430E08BF20EA7E
:1006D800D37070BD94F0000F0FD101F000464000B8
:1006E80041EB010111F4801F08BF013CF7D041EA3A
:1006F800060195F0000F18BF704703F0004652003E
:1007080043EB030313F4801F08BF013DF7D043EA0E
:100718000603704794EA0C0F0CEA135518BF95EAC4
:100728000C0F0CD050EA410618BF52EA4306D1D14B
:1007380081EA030101F000414FF0000070BD50EA6A
:10074800410606BF1046194652EA430619D094EAF4
:100758000C0F02D150EA013613D195EA0C0F05D1DE
:1007680052EA03361CBF104619460AD181EA030132
:1007780001F0004141F0FE4141F470014FF00000EA
:1007880070BD41F0FE4141F4780170BD70B54FF085
:10079800FF0C4CF4E06C1CEA11541DBF1CEA135505
:1007A80094EA0C0F95EA0C0F00F0A7F8A4EB0504E7
:1007B80081EA030E52EA03354FEA013100F08880DE
:1007C8004FEA03334FF0805545EA131343EA1263A7
:1007D8004FEA022245EA111545EA10654FEA00265C
:1007E8000EF000419D4208BF964244F1FD0404F515
:1007F800407402D25B084FEA3202B61A65EB030571
:100808005B084FEA32024FF480104FF4002CB6EB2D
:10081800020E75EB030E22BFB61A754640EA0C00AD
:100828005B084FEA3202B6EB020E75EB030E22BFED
:10083800B61A754640EA5C005B084FEA3202B6EB2E
:10084800020E75EB030E22BFB61A754640EA9C00ED
:100858005B084FEA3202B6EB020E75EB030E22BFBD
:10086800B61A754640EADC0055EA060E18D04FEA7B
:10087800051545EA16754FEA06164FEAC30343EA1B
:1008880052734FEAC2025FEA1C1CC0D111F4801FE8
:100898000BD141EA00014FF000004FF0004CB6E7E1
:1008A80011F4801F04BF01430020B4F1FD0C88BF80
:1008B800BCF5E06F3FF6AFAEB5EB030C04BFB6EB8B
:1008C800020C5FEA500C50F1000041EB045170BD7E
:1008D8000EF0004E4EEA113114EB5C04C2BFD4EBAB
:1008E8000C0541EA045170BD41F480114FF0000E2F
:1008F800013C90E645EA060E8DE60CEA135594EAAB
:100908000C0F08BF95EA0C0F3FF43BAF94EA0C0FAD
:100918000AD150EA01347FF434AF95EA0C0F7FF422
:1009280025AF104619462CE795EA0C0F06D152EA76
:1009380003353FF4FDAE1046194622E750EA41065A
:1009480018BF52EA43067FF4C5AE50EA41047FF46B
:100958000DAF52EA43057FF4EBAE12E74FEA4102CE
:1009680012F5001215D211D56FF47873B3EB6252F9
:1009780012D94FEAC12343F0004343EA505311F020
:10098800004F23FA02F018BF404270474FF00000B2
:10099800704750EA013005D111F0004008BF6FF0F0
:1009A800004070474FF00000704700BF53B94AB984
:1009B800002908BF00281CBF4FF0FF314FF0FF305F
:1009C80000F072B9ADF1080C6DE904CE00F006F83C
:1009D800DDF804E0DDE9022304B070472DE9F047B3
:1009E800089E04468846002B4BD18A42154667D993
:1009F800B2FA82F24AB1C2F1200701FA02F320FAF0
:100A080007F7954047EA030894404FEA154E230C30
:100A1800B8FBFEF71FFA85FC0EFB178843EA08436C
:100A280007FB0CF1994209D9EB1807F1FF3080F068
:100A38001B81994240F21881023F2B445B1AA4B2F1
:100A4800B3FBFEF00EFB103344EA034400FB0CFC3E
:100A5800A44509D92C1900F1FF3380F00781A4457A
:100A680040F2048102382C4440EA0740A4EB0C040D
:100A780000271EB1D4400023C6E900433946BDE82B
:100A8800F0878B4209D9002E00F0EB800027C6E9D9
:100A9800000138463946BDE8F087B3FA83F7002FDE
:100AA80047D18B4202D3824200F2FA80841A61EB6A
:100AB800030301209846002EE0D0C6E90048DDE790
:100AC80002B9FFDEB2FA82F2002A40F08F80491B99
:100AD8004FEA154E1FFA85F80127B1FBFEFC230CDF
:100AE8000EFB1C1143EA014308FB0CF1994207D99C
:100AF800EB180CF1FF3002D2994200F2CD80844607
:100B0800591AA3B2B1FBFEF00EFB101443EA0444D9
:100B180008FB00F8A04507D92C1900F1FF3302D2D1
:100B2800A04500F2B6801846A4EB080440EA0C4041
:100B38009FE7C7F1200CBB4022FA0CFE4EEA030ED9
:100B480001FA07F420FA0CF521FA0CF34FEA1E48D3
:100B58002543B3FBF8F92C0C08FB19331FFA8EFA5E
:100B680044EA034309FB0AF49C4202FA07F200FA3A
:100B780007F10BD91EEB030309F1FF3080F08780E2
:100B88009C4240F28480A9F1020973441B1BADB258
:100B9800B3FBF8F008FB103345EA034400FB0AFAFC
:100BA800A24508D91EEB040400F1FF336BD2A2451D
:100BB80069D90238744440EA0940A0FB0289A4EBD1
:100BC8000A044C45C2464B4654D351D0002E69D036
:100BD800B1EB0A0564EB030404FA0CFCFD40FC408D
:100BE8004CEA0505C6E90054002747E7C2F120038F
:100BF80020FA03F7954001FA02F021FA03F34FEACD
:100C0800154E3843010CB3FBFEF71FFA85F80EFBAF
:100C1800173341EA034107FB08F38B4204FA02F455
:100C280007D9691807F1FF3C2FD28B422DD9023F13
:100C38002944CB1A81B2B3FBFEF00EFB103341EA14
:100C4800034100FB08F38B4207D9691800F1FF3C08
:100C580017D28B4215D902382944C91A40EA0747E6
:100C68003BE73746304609E70746E7E61846FBE61E
:100C78004145ABD2B8EB020A69EB0E0201381346C4
:100C8800A4E76046E9E7184695E76746D1E7814655
:100C98007CE702382C4447E7ACF1020C2B442FE7E1
:100CA800384608E73746E9E6704700BF30B595B0E3
:100CB8003022002108A803F0D1FA002403940494F8
:100CC80005940694079401941C4B1A6C42F08052C8
:100CD8001A641B6C03F080530193019B0294184B18
:100CE8001A6842F480421A601B6803F48043029336
:100CF800029B012308934FF48033099302250E9534
:100D08004FF480030F9304231093A8221192129595
:100D1800139308A801F04AF80F2303930495059448
:100D28004FF4A05306934FF480530793052103A86B
:100D380001F07AFA01F006FA15B030BD0038024029
:100D4800007000402DE9F0478AB001F0DFFEFFF7A0
:100D5800ADFF00F091F800F0DFF900F0EBF800F0DB
:100D6800B1FA00F041FA3A4800F0F0F902F066FEF4
:100D780002F08CFE05223749374800F099FD18B17A
:100D8800364802F05FFDFBE7314801F093FF18B1E8
:100D9800334802F057FDFBE72D4C0021204602F0B6
:100DA80091F90421204602F08DF90821204602F02D
:100DB80089F9236840F2F3125A639A63DA63294B7C
:100DC80001221A7064221A824FF47A725A6114202E
:100DD80001F0C8FE1F48018842888388C5880489B5
:100DE80040F6E44000FB01F100FB02F200FB03F3D4
:100DF80000FB05F500FB04F01B4C666BA76BD4F8F1
:100E08003CC01A4C94F803E094F8008094F80190E0
:100E1800A478DFF850A09AF800A0CDF824A0089490
:100E2800CDF81C90CDF81880CDF814E0CDF810C09E
:100E380003970296000B01902D0B00951B0B120BCC
:100E4800090B0B4802F0FEFC03F048F9BFE700BFAE
:100E5800980100201C020020F00000208C420008AD
:100E6800AC4200085C02002000000140280200207B
:100E7800D44200087047000070B58AB00024059479
:100E880006940794089409940194274B1A6B42F02E
:100E980080021A631A6B02F080020192019A02948E
:100EA8001A6B42F004021A631A6B02F004020292EF
:100EB800029A03941A6B42F001021A631A6B02F049
:100EC80001020392039A04941A6B42F002021A6315
:100ED8001B6B03F002030493049B144D22464FF44A
:100EE8006041284601F071FB4FF4F07305930694B6
:100EF8000126079605A90E4801F07CFA41F602433F
:100F080005930694079605A9284601F073FA4FF44D
:100F180060430593069607940223089305A928467B
:100F280001F068FA0AB070BD0038024000040240BF
:100F38000008024000B585B0002300930193029396
:100F480003932E482E4A02604FF480324260836039
:100F580001220261027680F82030C3622949816249
:100F6800C3600523C36180F83020426100F074FC3F
:100F7800002831D106230093012301930023029313
:100F880069461E4800F048FE48BB07230093022329
:100F980001936946194800F03FFE18BB08230093E7
:100FA800032301936946154800F036FEE8B90B2380
:100FB8000093042301936946104800F02DFEB8B948
:100FC8000E2300930523019369460C4800F024FE84
:100FD80088B905B05DF804FBFFF74CFFCAE7FFF7D7
:100FE80049FFD2E7FFF746FFD8E7FFF743FFDEE701
:100FF800FFF740FFE4E7FFF73DFFEAE7F0000020D6
:10100800002001400100000F70B58AB0002305934D
:101018000693079308930993026803F1804303F545
:1010280090339A4201D00AB070BD0446002501955C
:1010380003F58C335A6C42F480725A645A6C02F489
:1010480080720192019A02951A6B42F004021A63A7
:101058001A6B02F004020292029A03951A6B42F08C
:1010680001021A631A6B02F001020392039A0495B3
:101078001A6B42F002021A631B6B03F0020304931B
:10108800049B122305930326069605A91D4801F023
:10109800B1F9C02305930696079505A91A4801F0EA
:1010A800A9F9012305930696079505A9174801F0A4
:1010B800A1F91748174B036045608560C5604FF478
:1010C800806303614FF4006343614FF4005383610D
:1010D8004FF48073C3614FF400330362456201F03B
:1010E800F7FA58B90A4BA3639C63002211461220F1
:1010F80001F08EFC122001F0BFFC94E7FFF7BAFE66
:10110800F0E700BF0008024000000240000402406F
:10111800380100201064024000B583B0002201921B
:10112800094B196B41F4800119631B6B03F48003AD
:101138000193019B0221382001F06AFC382001F05C
:101148009BFC03B05DF804FB0038024002680E4BBC
:101158009A4200D0704700B583B00021019103F591
:101168009C335A6C42F001025A645B6C03F0010331
:101178000193019B0A46192001F04AFC192001F04D
:101188007BFC03B05DF804FB0000014000B587B0AC
:1011980000230193029303930493059302680F4B72
:1011A8009A4202D007B05DF804FB002300930C4B71
:1011B8001A6B42F001021A631B6B03F001030093E0
:1011C800009B4FF4E06301930223029304930123ED
:1011D800059301A9034801F00DF9E3E70000014078
:1011E800003802400000024010B592B0002410946C
:1011F800119409940A940B940C940D940E940F94E2
:101208002022214601A803F029F82C482C4B036022
:101218004460846042F29B63C360046144618461FA
:1012280001F07EFE002836D100231093119310A9F7
:10123800224801F067FF002830D16023099300227B
:101248000A920B920C920D920E920F9209A91B48CA
:1012580001F0B8FE28BB042209A9184801F0B2FE23
:1012680010BB082209A9154801F0ACFEF8B9002303
:10127800019302930393049305934FF4005206924B
:10128800089301A90D4801F060FF98B90B48FFF7D2
:101298007DFF12B010BDFFF7EDFDC5E7FFF7EAFDD2
:1012A800CBE7FFF7E7FDD6E7FFF7E4FDD9E7FFF760
:1012B800E1FDDCE7FFF7DEFDE8E700BF980100206D
:1012C8000000014008B50A480A4B03604FF4E133B7
:1012D800436000238360C36003610C224261836121
:1012E800C36102F028F900B908BDFFF7C3FDFBE7A9
:1012F800D80100200010014000B589B000230393F5
:101308000493059306930793026803F1804303F55A
:1013180088339A4202D009B05DF804FB002101919C
:1013280003F594335A6C42F010025A645A6C02F076
:1013380010020192019A02911A6B42F002021A639A
:101348001B6B03F002030293029BC0230393022347
:10135800049301230593032306930723079303A903
:10136800014801F047F8D6E70004024008B501F04B
:101378002FF808BDFEE7FEE7FEE7FEE77047704777
:10138800704708B501F0DCFB08BD000008B502484D
:1013980000F057FB08BD00BFF000002008B5024868
:1013A80001F09DFC08BD00BF9801002008B5024867
:1013B80001F02EFA08BD00BF3801002008B5C24B65
:1013C800834200D008BD02F057FD02F077FBBF4B07
:1013D8001B78012B00F0F480022B00F0F580032B22
:1013E800F0D1BA498A89013292B28A81CB89013314
:1013F8009BB2CB81022A64D9B54A528C07EE102AD7
:10140800F8EE477AB34AC2ED017A92ED007A37EEE8
:10141800677A82ED027AD2ED037A27EE277A82ED97
:10142800047AD2ED056AD2ED0C7A67EE277A76EE69
:10143800A76A92ED085AF4EEC56AF1EE10FA01DDDA
:10144800F0EE456AA34AD2ED095AF4EEE65AF1EEF7
:1014580010FA01DDF0EE656A9E4AC2ED056AD2ED2A
:101468000E7A92ED0F6A37EE466A67EE867AC2ED1B
:10147800067A77EE266A77EEA67AB4EEE75AF1EEA8
:1014880010FA01D5F0EE457AF4EEE75AF1EE10FACB
:1014980001DDF0EE657A8F4AC2ED0A7A82ED0F7AA5
:1014A80092ED117ADFED8C6A27EE267ADFED8B6AF2
:1014B80067EEA67A77EE277AC2ED117A834A002181
:1014C8009181012B65D9864BDFED867AC3ED007AD1
:1014D800854A92ED017AB8EEC77A83ED017A37EE44
:1014E800C77A83ED027AD3ED037A27EE277A83ED64
:1014F800047AD3ED056AD3ED0C7A67EE277A76EE97
:10150800A76AD3ED085AF4EEE56AF1EE10FA01DDA8
:10151800F0EE656A724B93ED096AB4EEE66AF1EE95
:1015280010FA01DDF0EE466A6D4BC3ED056AD3EDA6
:101538000E7A93ED0F5A37EE455A67EE857AC3ED6A
:10154800067A77EE266A77EEA67AF4EEE75AF1EE97
:1015580010FA01D5F0EE657AB4EEE76AF1EE10FA0A
:1015680001DDF0EE467A5E4BC3ED0A7A83ED0F7A21
:1015780093ED117ADFED586A27EE267ADFED576A88
:1015880067EEA67A77EE277AC3ED117A4F4B0022E1
:10159800DA81534BD3ED117A4E4B93ED117AF4EE79
:1015A800C77AF1EE10FA00F38380FCEEE77A474B36
:1015B80017EE902A5A814A4B5A69464B5A6101E7FD
:1015C800424B5A695A81FDE6404A938901339BB2DE
:1015D8009381022B7FF6F6AE3D4B5B8C07EE103AFB
:1015E800F8EE477A3B4BC3ED017A93ED007A37EE7C
:1015F800677A83ED027AD3ED037A27EE277A83EDB3
:10160800047AD3ED056AD3ED0C7A67EE277A76EE85
:10161800A76AD3ED085AF4EEE56AF1EE10FA01DD97
:10162800F0EE656A2B4B93ED095AB4EEE65AF1EEEB
:1016380010FA01DDF0EE456A264BC3ED056AD3EDDD
:101648000E7A93ED0F6A37EE466A67EE867AC3ED37
:10165800067A77EE266A77EEA67AF4EEE75AF1EE86
:1016680010FA01D5F0EE657AB4EEE75AF1EE10FA09
:101678001BDC184BC3ED0A7A83ED0F7A93ED117AD0
:10168800DFED156A27EE267ADFED146A67EEA67A93
:1016980077EE277AC3ED117A0C4B00229A81FCEE83
:1016A800E77A17EE902A5A818CE6F0EE457AE0E761
:1016B800BCEEC77A054B17EE102A5A81054B5A69BA
:1016C800074B5A617EE600BF980100205C020020AB
:1016D80028020020A4000020BD8C6A3F179AAB3D69
:1016E8005C00002000007F430C00002082B0002135
:1016F80000910B4B5A6C42F480425A645A6C02F4C3
:1017080080420092009A01911A6C42F080521A6449
:101718001B6C03F080530193019B02B0704700BF1C
:10172800003802404A4B5A6822F440325A605A68DC
:1017380041680A435A600268536823F4807353600F
:1017480002685368016943EA0123536002685368D9
:1017580023F0407353600268536881680B435360F9
:101768000268936823F40063936002689368C16811
:101778000B439360826A374B9A424BD00268936856
:1017880023F07063936002689368816A0B439360E7
:101798000268936823F04053936002689368C16AB3
:1017A8000B4393600268936823F002039360026816
:1017B8009368017E43EA4103936090F82030002B40
:1017C80033D10268536823F4006353600268D36A14
:1017D80023F47003D3620168CB6AC269013A43EA11
:1017E8000253CB620268936823F400739360026823
:1017F800936890F8301043EA412393600268936835
:1018080023F48063936002689368416943EA812303
:10181800936070470268936823F07063936002686E
:10182800936823F040539360BCE70268536843F41D
:10183800006353600268536823F46043536001688F
:101848004B68426A013A43EA42334B60BEE700BF45
:10185800002301400100000F38B310B50446036CA3
:1018680043B1236C13F0100F0BD00120002384F830
:101878003C3010BDFFF7C8FB0023636484F83C309C
:10188800EFE7236C23F4885323F0020343F00203A9
:1018980023642046FFF746FF00206064236C23F092
:1018A800030343F001032364E0E7012070470000CD
:1018B80030B583B00023019390F83C30012B00F041
:1018C8009B80012380F83C300468A36813F0010F63
:1018D80013D1A36843F00103A3604D4B1C684D4B23
:1018E800A3FB0434A40C04EB4404019402E0019C1F
:1018F800013C0194019C002CF9D103689C6814F008
:10190800010F7BD0046C24F4E06424F0010444F457
:10191800807404645B6813F4806F05D0036C23F44F
:10192800405343F480530364036C13F4805F38D04E
:10193800436C23F00603436413460446002280F8F0
:101948003C20826B3448D063A26B34481064A26B8D
:101958003348D06422686FF02200106025686868F8
:1019680040F0806068602568A86840F48070A860CE
:1019780020680A4600F14C01A06B00F00FFF294BCC
:101988005B6813F01F0F27D12368274A934219D0A9
:1019980002F58072934207D0244A93420BD000206C
:1019A8002DE000234364C7E702F50072526812F085
:1019B8001F0F07D0F0E702F58072526802F01F028D
:1019C8000F2A1ED89A6812F0405F1CD19A6842F01C
:1019D80080429A60002012E02368134A934201D0A3
:1019E80000200CE09A6812F0405F0ED19A6842F02D
:1019F80080429A60002002E0022000E0002003B04C
:101A080030BD0020FBE70020F9E70020F7E700BF22
:101A18000800002083DE1B43AF1B00083D1A0008A6
:101A2800991B0008002301400020014000220140CA
:101A38007047704708B5806BFFF7FBFF08BD70471C
:101A4800704738B5044602681168536811F0020FF0
:101A58002FD003F0200363B3036C13F0100F03D1EE
:101A6800036C43F400730364936813F0405F19D167
:101A7800237EBBB9D36A13F4700F03D0936813F4B1
:101A8800806F0FD1536823F020035360236C23F435
:101A980080732364236C13F4805F03D1236C43F0B9
:101AA800010323642046FFF7C3FF23686FF0120287
:101AB8001A60236819685A6802F0800211F0040F4E
:101AC80036D0002A34D0226C12F0100F03D1226CC9
:101AD80042F4005222649A6812F4401F21D19A6B92
:101AE80012F4401F03D09A6812F4806F19D15A6813
:101AF80012F4806F15D19A6812F0405F11D1227EDE
:101B08007AB95A6822F080025A60236C23F4805311
:101B18002364236C13F4807F03D1236C43F0010307
:101B28002364204600F040F923686FF00C021A6025
:101B380022681168536803F0400311F0010F04D0C4
:101B48001BB1136813F0010F09D12268116853689B
:101B580003F0806311F0200F00D063B938BD236C07
:101B680043F4803323642046FFF769FF23686FF04E
:101B780001021A60E9E7636C43F0020363646FF0E3
:101B8800200515602046FFF75BFF23681D60E5E729
:101B980008B5806B40230364436C43F0040343643B
:101BA800FFF74EFF08BD08B5836B1A6C12F0500F93
:101BB80026D11A6C42F400721A641A68916811F0FE
:101BC800405F19D1197EB9B9D16A11F4700F03D0E9
:101BD800916811F4806F0FD1516821F02001516094
:101BE8001A6C22F480721A641A6C12F4805F03D1A2
:101BF8001A6C42F001021A641846FFF719FF08BD73
:101C08001A6C12F0100F03D19B6BDB6C9847F6E748
:101C18001846FFF715FFF2E730B482B000230193AE
:101C280090F83C30012B00F0B780012380F83C305D
:101C38000B68092B3ED90568EA689BB203EB43039E
:101C48001E3B072404FA03F322EA0303EB6005684A
:101C5800EA688C680B8803EB43031E3B04FA03F322
:101C68001343EB604B68062B3AD805686A6B03EBA5
:101C78008303053B1F2404FA03F322EA03036B637F
:101C880005686A6B4B6803EB8303053B0C8804FA11
:101C980003F313436B630268404B9A4250D00268C7
:101CA8003E4B9A4255D0002380F83C30184602B08B
:101CB80030BC704705682A699BB203EB43030724CD
:101CC80004FA03F322EA03032B6105682A698C6886
:101CD8000B8803EB430304FA03F313432B61C1E7B7
:101CE8000C2B16D805682A6B03EB8303233B1F24B0
:101CF80004FA03F322EA03032B6305682A6B4B6893
:101D080003EB8303233B0C8804FA03F313432B638D
:101D1800C1E70568EA6A03EB8303413B1F2404FA21
:101D280003F322EA0303EB620568EA6A4B6803EBF4
:101D38008303413B0C8804FA03F31343EB62AAE7DD
:101D48000B68122BABD1164A536843F480035360D7
:101D5800A5E70B68103B012BA5D8114A536843F43B
:101D6800000353600B68102B9DD10E4B1B6802F1CA
:101D7800467202F52E3202F28332A2FB03239B0C39
:101D880003EB83035A00019202E0019B013B01939C
:101D9800019B002BF9D186E7022088E7002001404B
:101DA800002301400800002070470000002800F0D0
:101DB800BB8170B582B00446036813F0010F3BD0B5
:101DC800A74B9B6803F00C03042B2CD0A44B9B68F7
:101DD80003F00C03082B21D06368B3F5803F4FD084
:101DE800B3F5A02F52D09E4B1A6822F480321A60A5
:101DF8001A6822F480221A606368002B50D000F021
:101E0800ABFE0546964B1B6813F4003F14D100F057
:101E1800A3FE401B6428F5D903208AE1904B5B6838
:101E280013F4800FD8D08E4B1B6813F4003F03D0F7
:101E38006368002B00F07A81236813F0020F55D0F5
:101E4800874B9B6813F00C0F3ED0854B9B6803F0C3
:101E58000C03082B33D0E368002B68D0814B012298
:101E68001A6000F079FE05467D4B1B6813F0020FDF
:101E780054D100F071FE401B0228F5D9032058E127
:101E8800774A136843F480331360B5E7744B1A68D4
:101E980042F480221A601A6842F480321A60ABE772
:101EA80000F05AFE05466E4B1B6813F4003FC3D082
:101EB80000F052FE401B6428F5D9032039E1684B35
:101EC8005B6813F4800FC6D1654B1B6813F0020FD3
:101ED80004D0E368012B01D001202AE1604A13688D
:101EE80023F0F803216943EAC1031360236813F060
:101EF800080F40D0636963B35B4B01221A6000F09E
:101F08002BFE0546564B5B6F13F0020F33D100F0E2
:101F180023FE401B0228F5D903200AE1504A136822
:101F280023F0F803216943EAC1031360DEE74D4B50
:101F380000221A6000F010FE0546494B1B6813F09A
:101F4800020FD3D000F008FE401B0228F5D9032069
:101F5800EFE0454B00221A6000F0FEFD0546404BBD
:101F68005B6F13F0020F06D000F0F6FD401B02284D
:101F7800F5D90320DDE0236813F0040F79D0384B3E
:101F88001B6C13F0805F33D100230193344B1A6C20
:101F980042F080521A641B6C03F080530193019B3A
:101FA8000125324B1B6813F4807F23D0A368012BD3
:101FB80034D0052B38D02A4B1A6F22F001021A6749
:101FC8001A6F22F004021A67A368002B36D000F0BB
:101FD800C3FD0646224B1B6F13F0020F48D100F0D9
:101FE800BBFD801B41F288339842F3D90320A0E05F
:101FF8000025D6E71D4A136843F48073136000F088
:10200800ABFD0646194B1B6813F4807FCED100F058
:10201800A3FD801B0228F5D903208AE0104A136F1C
:1020280043F001031367CFE70D4B1A6F42F0040228
:102038001A671A6F42F001021A67C5E700F08CFDB3
:102048000646074B1B6F13F0020F11D000F084FDFA
:10205800801B41F288339842F3D9032069E000BF1E
:102068000038024000004742800E4742007000409E
:10207800E5B9A369002B5BD0304A926802F00C02E4
:10208800082A58D0022B17D02D4B00221A6000F0D6
:1020980063FD0446294B1B6813F0007F42D000F013
:1020A8005BFD001B0228F5D9032042E0234A136C8C
:1020B80023F080531364DCE7214B00221A6000F000
:1020C8004BFD05461D4B1B6813F0007F06D000F042
:1020D80043FD401B0228F5D903202AE0E369226A60
:1020E8001343626A43EA8213A26A5208013A43EA36
:1020F8000243E26A43EA0263104A5360104B01222A
:102108001A6000F029FD04460C4B1B6813F0007F91
:1021180006D100F021FD001B0228F5D9032008E0B4
:10212800002006E0002004E001207047012000E0C4
:10213800002002B070BD0120FBE700BF003802405C
:1021480060004742014B01221A6070474C00474229
:10215800324B9B6803F00C03042B5CD0082B01D096
:102168002F4870472DE9F04B2C4B5A6802F03F027C
:102178005B6813F4800F2BD0284B5B68C3F388137C
:102188001E4600275C010025E41A65EB0705A90136
:1021980041EA9461A001001B61EB0501CB0043EA11
:1021A8005073C400A01943EB07014B0243EAD05314
:1021B8004402204619460023FEF7F8FB174B5B68DC
:1021C800C3F3014301335B00B0FBF3F0BDE8F08BD0
:1021D800124B5B68C3F388131E4600275C01002579
:1021E800E41A65EB0705A90141EA9461A001001B07
:1021F80061EB0501CB0043EA5073C400A01943EB1F
:1022080007018B0243EA90538402204619460023B3
:10221800FEF7CCFBD2E70348704700BF0038024006
:102228000024F40000127A00002800F09D8070B5A8
:1022380004464F4B1B6803F00F038B4209D2CBB205
:102248004B4A1370136803F00F038B4201D001202F
:1022580070BD236813F0020F17D013F0040F04D0D9
:10226800444A936843F4E0539360236813F0080FDB
:1022780004D0404A936843F4604393603D4A9368AE
:1022880023F0F003A068034393600D46236813F01E
:10229800010F32D06368012B21D09A1E012A25D95B
:1022A800344A126812F0020F60D032498A6822F06C
:1022B800030213438B6000F04FFC06462D4B9B68CE
:1022C80003F00C036268B3EB820F16D000F044FCF5
:1022D800801B41F288339842F0D90320B8E7254A99
:1022E800126812F4003FE0D10120B1E7214A1268D8
:1022F80012F0007FD9D10120AAE71D4B1B6803F01B
:102308000F03AB4209D9EAB2194B1A701B6803F0E4
:102318000F03AB4201D001209AE7236813F0040FA2
:1023280006D0144A936823F4E053E1680B439360A2
:10233800236813F0080F07D00E4A936823F460430C
:10234800216943EAC1039360FFF702FF094B9B68C9
:10235800C3F30313084AD35CD840084B1860002025
:1023680000F0AEFB002073E70120704701206FE703
:10237800003C024000380240844300080800002066
:10238800014B1868704700BF0800002008B5FFF728
:10239800F7FF044B9B68C3F38223034AD35CD840FE
:1023A80008BD00BF003802409443000808B5FFF795
:1023B800E7FF044B9B68C3F34233034AD35CD8401E
:1023C80008BD00BF00380240944300087047000071
:1023D80008B5064BDB6813F0800F00D108BDFFF786
:1023E800F5FF034B80221A70F8E700BF003802405F
:1023F8000E38024000230F2B00F2D780F0B482B0D1
:1024080039E0072200E00022B2403A430234674E26
:1024180046F82420664A1468EA4302EA04064F682C
:1024280017F4803F01D045EA0406614C26606468D1
:1024380002EA04064F6817F4003F01D045EA040693
:102448005B4C6660A46802EA04064F6817F4801FB4
:1024580001D045EA0406564CA660E46822404E685E
:1024680016F4001F01D045EA0402514CE260013322
:102478000F2B00F2978001229A400C6804EA0205AB
:10248800AA42F4D14C68022C01D0122C10D1DE08DB
:10249800083650F826C003F00704A7000F24BC40F4
:1024A8002CEA040C0C69BC4044EA0C0440F82640B1
:1024B80004685F000326BE40F64306EA040C4C6835
:1024C80004F00304BC4044EA0C0404604C6804F1C2
:1024D800FF3CBCF1010F03D9112C01D0122C10D1F3
:1024E800846806EA040CCC68BC4044EA0C048460A6
:1024F800446824EA02024C68C4F300149C40144364
:102508004460C26816408A68BA403243C2604A686A
:1025180012F0805FABD000220192264A546C44F43A
:1025280080445464526C02F480420192019A9C08DF
:10253800A61C1E4A52F8267003F0030296000F22CA
:10254800B24027EA02071C4A90423FF45CAF02F50A
:10255800806290421AD002F58062904218D002F54B
:102568008062904216D002F58062904214D002F543
:102578008062904212D002F58062904210D002F53B
:10258800806290423FF43DAF08223DE701223BE7DD
:10259800022239E7032237E7042235E7052233E729
:1025A800062231E702B0F0BC70477047003801409E
:1025B800003C014000380240000002400369194213
:1025C80001D1002070470120704712B909048161C8
:1025D80070478161704730B405682C6824F4802402
:1025E8002C60046863608368402B05D00368996099
:1025F8000368DA6030BC704703689A600368D96082
:10260800F8E700000268D3B2103B0B49A1FB0313A3
:102618001B090A49C95CC165032B06D822F47F72DD
:1026280022F003028265806D704722F47F7222F0E7
:10263800030204328265F6E7ABAAAAAA7C43000823
:10264800836A826992B9012B0AD01BB1022B01D08F
:1026580000207047C36A13F0807F2CD10020704798
:10266800C36AB3F1C07F28D000207047B2F5005F7D
:1026780005D0022B29D9032B15D000207047032B36
:1026880003D8DFE803F01C041C0A00207047C36A63
:1026980013F0807F15D100207047C36AB3F1C07F63
:1026A80011D000207047C36A13F0807F01D0012049
:1026B80070470020704701207047012070470120B3
:1026C80070470120704701207047012070470000C3
:1026D80070B5044600F040FA002C5BD00546002394
:1026E80084F83430022384F835302268136823F0E4
:1026F8000103136023681A6812F0010F0AD000F072
:102708002BFA401B0528F5D920236365032084F89C
:10271800350070BD1A68204810406168A2680A43F5
:10272800E1680A4321690A4361690A43A1690A43C6
:10273800E1690A43216A0A430243616A04291ED0F7
:102748001A602668756925F00705636A1D43042B1E
:1027580007D1A36A1D43E36A1BB12046FFF770FF48
:1027680090B975612046FFF74DFFE26D3F23934016
:10277800836000206065012384F83530C9E7E16A89
:10278800206B01430A43DBE740236365012084F89B
:102798003500BEE70120BCE73F8010F038B5856DF5
:1027A80090F83440012C31D0012480F8344090F85E
:1027B8003540E4B2012C04D0002380F834300220E4
:1027C80038BD0446022084F83500002060652046A4
:1027D800FFF701FFE26D3F239340AB602268136867
:1027E80043F0160313602268536943F08003536172
:1027F800236C23B12268136843F00803136022682E
:10280800136843F0010313600020D9E70220D7E7DB
:10281800F0B583B0044600230193724B1D68724BD8
:10282800A3FB0535AD0A876D3E68C26D082393404A
:10283800334210D003681A6812F0040F0BD01A68DC
:1028480022F004021A60C26D08239340BB60436DF6
:1028580043F001034365E26D01239340334209D0FD
:102868002268526912F0800F04D0BB60636D43F098
:1028780002036365E26D04239340334209D0226862
:10288800126812F0020F04D0BB60636D43F00403BA
:102898006365E26D10239340334224D022681268A6
:1028A80012F0080F1FD0BB6023681A6812F4802F3B
:1028B8000DD01B6813F4002F04D1236C9BB1204664
:1028C800984710E0A36C73B1204698470BE01A684C
:1028D80012F4807F03D11A6822F008021A60236C70
:1028E8000BB120469847E26D20239340334255D0E0
:1028F8002268126812F0100F50D0BB6094F835307F
:10290800DBB2052B0ED023681A6812F4802F33D05F
:102918001B6813F4002F2AD1636C002B3ED020468D
:1029280098473BE02268136823F016031360226877
:10293800536923F080035361236CA3B122681368A1
:1029480023F008031360E26D3F239340BB6000232C
:1029580084F83430012384F83530236D002B3FD0C0
:10296800204698473CE0A36C002BE7D1EBE7E36BEC
:10297800A3B12046984711E01A6812F4807F09D164
:102988001A6822F010021A60002384F834300123F8
:1029980084F83530E36B0BB120469847636DFBB183
:1029A800636D13F0010F17D0052384F835302268C2
:1029B800136823F001031360019B01330193AB42B9
:1029C80004D823681B6813F0010FF5D1002384F89D
:1029D8003430012384F83530E36C0BB12046984736
:1029E80003B0F0BD08000020B5814E1B074AD3682C
:1029F80023F4E0631B041B0C000200F4E06018439E
:102A080040F0BF6040F40030D060704700ED00E057
:102A180030B4174BDB68C3F30223C3F10704042C5B
:102A280028BF04241D1D062D18D9033B4FF0FF3580
:102A380005FA04F421EA0401994005FA03F322EAAD
:102A48000303194300280BDB0901C9B200F16040F8
:102A580000F5614080F8001330BC70470023E5E7BB
:102A680000F00F000901C9B2024B1954F4E700BF86
:102A780000ED00E014ED00E0002807DB00F01F0285
:102A8800400901239340024A42F82030704700BFB2
:102A980000E100E00138B0F1807F0AD2064B5860AF
:102AA800064AF02182F823100020986007221A6055
:102AB80070470120704700BF10E000E000ED00E023
:102AC80010B504460E4B18784FF47A73B3FBF0F345
:102AD8000C4A1068B0FBF3F0FFF7DCFF68B90F2C65
:102AE80001D901200AE0002221464FF0FF30FFF70C
:102AF8008FFF054B1C60002000E0012010BD00BFC7
:102B080000000020080000200400002008B50B4B3E
:102B18001A6842F400721A601A6842F480621A60F5
:102B28001A6842F480721A600320FFF75FFF0020E2
:102B3800FFF7C6FFFEF7DAFD002008BD003C0240A3
:102B4800034A1168034B1B780B441360704700BF9E
:102B58001802002000000020014B1868704700BFD1
:102B68001802002038B50446FFF7F6FF0546B4F111
:102B7800FF3F02D0044B1B781C44FFF7EDFF401BBE
:102B8800A042FAD338BD00BF0000002030B4036A69
:102B980023F001030362056A4268846924F0730420
:102BA8000B681C4325F002058B682B43104DA84287
:102BB80003D005F58065A84205D123F00803CD6848
:102BC8002B4323F004030A4DA84203D005F5806582
:102BD800A84205D122F440724D6915438A692A43F7
:102BE800426084614A684263036230BC704700BF38
:102BF8000000014030B4036A23F480730362036A5F
:102C08004268C46924F073040D682C4323F40073EC
:102C18008D6843EA0523124DA84203D005F5806567
:102C2800A84206D123F40063CD6843EA052323F4C0
:102C380080630B4DA84203D005F58065A84207D1F3
:102C480022F440524D6942EA05128D6942EA0512A2
:102C58004260C4614A68C263036230BC704700BF07
:102C68000000014030B4036A23F480530362036A0E
:102C78004468C26922F4E6420D6842EA052223F458
:102C880000538D6843EA0533094DA84203D005F582
:102C98008065A84204D124F480444D6944EA85142F
:102CA8004460C2614A680264036230BC704700BF76
:102CB800000001400268D36843F00103D360026852
:102CC800936803F00703062B03D0136843F001034E
:102CD800136000207047704770477047704710B501
:102CE800044603681A6912F0020F11D0DA6812F06C
:102CF800020F0DD06FF002021A61012303770368F7
:102D08009B6913F0030F70D0FFF7E6FF00232377CA
:102D180023681A6912F0040F12D0DA6812F0040F4F
:102D28000ED06FF004021A610223237723689B698F
:102D380013F4407F5FD02046FFF7CEFF00232377B0
:102D480023681A6912F0080F12D0DA6812F0080F17
:102D58000ED06FF008021A61042323772368DB6919
:102D680013F0030F4ED02046FFF7B6FF002323775A
:102D780023681A6912F0100F12D0DA6812F0100FD7
:102D88000ED06FF010021A61082323772368DB69DD
:102D980013F4407F3DD02046FFF79EFF00232377A2
:102DA80023681A6912F0010F03D0DA6812F0010FD4
:102DB80036D123681A6912F0800F03D0DA6812F04E
:102DC800800F34D123681A6912F0400F03D0DA68F3
:102DD80012F0400F32D123681A6912F0200F03D085
:102DE800DA6812F0200F30D110BDFFF774FF2046CB
:102DF800FFF773FF8AE72046FFF76DFF2046FFF7CE
:102E08006CFF9BE72046FFF766FF2046FFF765FF4C
:102E1800ACE72046FFF75FFF2046FFF75EFFBDE700
:102E28006FF001021A612046FEF7C8FAC1E76FF099
:102E380080021A61204600F0B2F9C3E76FF0400241
:102E48001A612046FFF74AFFC5E76FF020021A61B2
:102E5800204600F0A3F9C7E70368304A904212D031
:102E6800B0F1804F0FD0A2F57C4290420BD002F512
:102E78008062904207D002F58062904203D002F54A
:102E88007842904203D123F070034A681343234ADF
:102E980090422AD0B0F1804F27D0A2F57C429042D0
:102EA80023D002F5806290421FD002F580629042E2
:102EB8001BD002F57842904217D002F5705290422A
:102EC80013D002F5806290420FD002F580629042E2
:102ED8000BD0A2F59832904207D002F5806290425A
:102EE80003D002F58062904203D123F44073CA688C
:102EF800134323F080034A69134303608B68C3625A
:102F08000B688362054B984203D003F580639842AF
:102F180001D10B690363012343617047000001403D
:102F2800A8B110B5044690F83D305BB1022384F88F
:102F38003D30211D2068FFF78FFF012384F83D30C5
:102F4800002010BD80F83C30FEF700F9EEE70120C4
:102F58007047000030B4036A23F010030362036A69
:102F68004468826922F4E6420D6842EA052223F0A9
:102F780020038D6843EA0513114DA84203D005F5D7
:102F88008065A84206D123F08003CD6843EA051383
:102F980023F040030A4DA84203D005F58065A842F6
:102FA80007D124F440644D6944EA85048D6944EAF4
:102FB8008504446082614A688263036230BC70475A
:102FC8000000014038B590F83C30012B66D00D4622
:102FD8000446012380F83C30022380F83D300C2A57
:102FE8001AD8DFE802F00719191920191919341924
:102FF800191947000068FFF7C9FD2268936943F073
:10300800080393612268936923F00403936122689B
:10301800936929690B439361012384F83D300020AB
:1030280084F83C0038BD0068FFF794FF2268936974
:1030380043F4006393612268936923F48063936186
:1030480022689369296943EA01239361E4E70068E8
:10305800FFF7D0FD2268D36943F00803D3612268E3
:10306800D36923F00403D3612268D36929690B4328
:10307800D361D1E70068FFF7F5FD2268D36943F40F
:103088000063D3612268D36923F48063D361226823
:10309800D369296943EA0123D361BDE70220C1E767
:1030A80010B401F01F01012303FA01F4036A23EAB3
:1030B80004030362036A8A40134303625DF8044B06
:1030C8007047000010B5044601220068FFF7E8FFCA
:1030D80023680B4A934203D002F58062934203D1DE
:1030E8005A6C42F400425A642268936803F007035A
:1030F800062B03D0136843F001031360002010BDB2
:103108000000014090F83C30012B1CD070B401261F
:1031180080F83C60022380F83D3002685568936867
:1031280025F070050C682C4323F080054B682B4371
:1031380054600268936080F83D60002380F83C305A
:10314800184670BC70470220704790F83C30012B3D
:1031580022D0012380F83C30CB6823F440738A687E
:10316800134323F480634A68134323F400630A6813
:10317800134323F480530A69134323F400534A6921
:10318800134323F48043CA6913430268536400233A
:1031980080F83C30184670470220704770477047E7
:1031A8002DE9F84304460268136923F44053C168C3
:1031B8000B43136183680269134342691343C2696D
:1031C8001A430168CB6823F4164323F00C03134316
:1031D800CB600268536923F4407381690B435361E0
:1031E800C369B3F5004F60D00368B84A934200F052
:1031F800148102F58062934200F00F81FFF7C6F850
:1032080000EB800000EB80006568AD00B0FBF5F5D1
:10321800AF4FA7FB05356D092E01FFF7B7F800EB97
:10322800800000EB80006568AD00B0FBF5F9FFF7A2
:10323800ADF800EB800000EB80006568AD00B0FBE6
:10324800F5F5A7FB05356D094FF0640808FB1595E2
:103258002D013235A7FB05356D0905F0F00535441C
:10326800FFF794F800EB800000EB80006668B6007A
:10327800B0FBF6F6FFF78AF800EB800000EB800061
:1032880063689B00B0FBF3F0A7FB0030400908FB24
:1032980010684FEA081808F13208A7FB0837C7F387
:1032A800431723682F449F600DE10368874A9342C0
:1032B8005BD002F58062934257D0FFF767F800EBC6
:1032C800800000EB800065686D00B0FBF5F5804F6D
:1032D800A7FB05356D092E01FFF758F800EB8000B4
:1032E80000EB800065686D00B0FBF5F9FFF74EF85C
:1032F80000EB800000EB800065686D00B0FBF5F521
:10330800A7FB05356D094FF0640808FB1595ED001E
:103318003235A7FB05356D096D0005F4F8753544A0
:10332800FFF734F800EB800000EB80006668760059
:10333800B0FBF6F6FFF72AF800EB800000EB800000
:1033480063685B00B0FBF3F3A7FB03235B0908FB8F
:1033580013684FEAC80808F13208A7FB0837C7F313
:10336800421723682F449F60ADE0FFF71FF800EB7A
:10337800800000EB800065686D00B0FBF5F5544FE8
:10338800A7FB05356D092E01FFF710F800EB80004B
:1033980000EB800065686D00B0FBF5F9FFF706F8F3
:1033A80000EB800000EB800065686D00B0FBF5F570
:1033B800A7FB05356D094FF0640808FB1595ED006E
:1033C8003235A7FB05356D096D0005F4F8753544F0
:1033D800FEF7ECFF00EB800000EB800066687600EB
:1033E800B0FBF6F6FEF7E2FF00EB800000EB800092
:1033F80063685B00B0FBF3F3A7FB03235B0908FBDF
:1034080013684FEAC80808F13208A7FB0837C7F362
:10341800421723682F449F6055E0FEF7C7FF00EB73
:10342800800000EB80006568AD00B0FBF5F5284F23
:10343800A7FB05356D092E01FEF7B8FF00EB8000EC
:1034480000EB80006568AD00B0FBF5F9FEF7AEFF54
:1034580000EB800000EB80006568AD00B0FBF5F57F
:10346800A7FB05356D094FF0640808FB15952D017C
:103478003235A7FB05356D0905F0F0053544FEF733
:1034880095FF00EB800000EB80006668B600B0FB9B
:10349800F6F6FEF78BFF00EB800000EB8000636818
:1034A8009B00B0FBF3F0A7FB0030400908FB106855
:1034B8004FEA081808F13208A7FB0837C7F3431783
:1034C80023682F449F60BDE8F88300BF00100140C7
:1034D8001F85EB512DE9F04105460F4616469846E3
:1034E800069C2B681B6837EA03030CBF01230023E3
:1034F800B3421DD1B4F1FF3FF3D02CB1FFF72CFB41
:10350800A0EB0800A042ECD92A68D36823F4D07352
:10351800D3602A68536923F001035361202385F897
:10352800393085F83A30002385F83830032000E038
:103538000020BDE8F08158B310B5044690F8393042
:103548000BB3242384F839302268D36823F400535A
:10355800D3602046FFF724FE2268136923F49043C2
:1035680013612268536923F02A0353612268D368E0
:1035780043F40053D3600020E063202384F83930FB
:1035880084F83A3010BD80F83830FDF7B5FED8E73A
:10359800012070472DE9F04182B01E4690F839307D
:1035A800DBB2202B55D104460D469046002955D054
:1035B800002A55D090F83830012B53D0012380F8D9
:1035C80038300023C363212380F83930FFF7C4FA69
:1035D8000746A4F82480A4F8268010E000963B460D
:1035E800002280212046FFF775FF00283CD12B8858
:1035F8002268C3F3080353602369C3B90235E38C17
:103608009BB2B3B1E38C013B9BB2E384A368B3F5EF
:10361800805FE3D000963B46002280212046FFF7DA
:1036280059FF18BB2A7823685A600135E7E7013546
:10363800E5E700963B46002240212046FFF74AFF77
:103648000346A8B9202284F83920002284F83820BB
:1036580000E00223184602B0BDE8F0810123F9E733
:103668000123F7E70223F5E70323F3E70323F1E751
:103678000323EFE70F49D1F8883043F47003C1F80A
:1036880088300D4B1A6842F001021A6000209860D9
:103698001A6822F0847222F480321A60074A5A604B
:1036A8001A6822F480221A60D8604FF000638B6099
:1036B800704700BF00ED00E00038024010300024E1
:1036C80000B583B002A901F8010DFF2301220348C8
:1036D800FFF760FF03B05DF804FB00BFD8010020CE
:1036E80038B528B10546002806DB2B4600240FE034
:1036F8003020FFF7E5FF38BD45422D20FFF7E0FFFA
:10370800F3E70134124A82FB0312DB17C3EBA2036F
:10371800092BF6DC17E00E4A82FB0302DB17C3EB2A
:10372800A20301318C42F6DC094A82FB0312D81746
:10373800C0EBA20000EB80004200981A3030C0B203
:10374800FFF7BEFF013C002CD5DB2B460021E9E743
:10375800676666660000000070B555EC104B10EE09
:10376800100A2946FDF7FAF80646FFF7B9FF2E209A
:10377800FFF7A6FF3046FCF775FE02460B462046CB
:103788002946FCF721FD06A3D3E90023FCF7D4FE64
:10379800FDF7E4F8FFF7A4FF70BD00BFAFF30080AA
:1037A8000000000080842E4110B5044602E0013478
:1037B800FFF786FF20780028F9D110BD10B518B999
:1037C8000A48FFF7F1FF10BD044600EBD070401027
:1037D800FFF7F4FF002C04F00104B8BF644204F1C1
:1037E8003000C0B2FFF76CFFEDE700BF9C43000854
:1037F80010B518B91248FFF7D7FF10BD04460028C6
:1038080010DB0011FFF7F4FF092C0DDD634204F013
:103818000F0403F00F0358BF5C425734E0B2FFF7C0
:103828004FFFEAE70F30ECE7634204F00F0403F0C0
:103838000F0358BF5C423034E0B2FFF741FFDCE7CA
:10384800A04300080FB410B582B004AB53F8044B82
:10385800019306E0019B1A1D01921878FFF730FFCB
:1038680002342078002800F0E380252840F0DC802E
:103878006378253B532BF3D801A252F823F000BFFD
:10388800293A0008693800086938000869380008CA
:10389800693800086938000869380008693800087C
:1038A800693800086938000869380008693800086C
:1038B800693800086938000869380008693800085C
:1038C800693800086938000869380008693800084C
:1038D800693800086938000869380008693800083C
:1038E800693800086938000869380008693800082C
:1038F800693800080D3A0008693800086938000876
:10390800693800086938000869380008693800080B
:1039180069380008693800086938000869380008FB
:1039280069380008693800086938000869380008EB
:1039380069380008693800086938000869380008DB
:103948006938000869380008693800081B3A000817
:1039580069380008693800086938000869380008BB
:1039680069380008693800086938000869380008AB
:10397800693800080D3A00085D380008D939000890
:1039880069380008E739000869380008693800080C
:10399800D93900086938000869380008693800080A
:1039A800693800086938000869380008693800086B
:1039B8006938000869380008FF39000869380008C4
:1039C8006938000869380008693800081B3A000897
:1039D800019B1A1D01921868FFF782FE40E7019BC0
:1039E800073323F0070303F10802019293ED000B5C
:1039F800FFF7B2FE34E7019B1A1D01921868FFF722
:103A0800D3FE2DE7019B1A1D01921868FFF7D6FE19
:103A180026E7019B1A1D01921868FFF7E9FE1FE7C8
:103A28002520FFF74DFE1BE70134FFF749FE18E795
:103A380002B0BDE8104004B0704700BF30B40C4B72
:103A48000C4ADA600C4A1A635A630C4818620C4C28
:103A58005C62002119600B4B4FF08045DD600A4D18
:103A68001D635A635C621862196030BC704700BFFE
:103A7800A4000020CDCC4C3D0AD7233C00401C4676
:103A880000007A445C000020CDCC4C3E034B02225F
:103A980083F8202045F6C052DA61704728020020DA
:103AA800054B1B78834205D0034B187008B10120E1
:103AB80070477047022070475800002038B5AF4D56
:103AC80040212846FEF77AFD00F00100AC4C20703A
:103AD80080212846FEF772FD00F0010060704FF467
:103AE80080712846FEF76AFD00F00100A07020787A
:103AF800FFF7D6FFE084237862785200D2B21344ED
:103B0800A2789200D2B252FA83F3DBB2E3709D4AF4
:103B1800926912B9C3F10703E370994AD37812790D
:103B2800934223D0013B052B00F2B680DFE803F077
:103B380028604498037C944B1B6800245C63914A7A
:103B480052899A63DC63914D22464FF4804128469E
:103B5800FEF73BFD22464FF400412846FEF735FDAF
:103B680001224FF400512846FEF72FFD844B1A79A5
:103B7800DB789A4200F0A480814BDA781A7138BD5C
:103B8800814B1B6800245C637E4A52899A63DC631C
:103B98007E4D22464FF400512846FEF716FD224678
:103BA8004FF480412846FEF710FD01224FF40041F2
:103BB8002846FEF70AFDD9E7734B1B68714A5289FC
:103BC8005A6300249C63DC63704D22464FF4005115
:103BD8002846FEF7FAFC22464FF480412846FEF7B5
:103BE800F4FC01224FF400412846FEF7EEFCBDE745
:103BF800654B1B68634A52895A6300249C63DC63E3
:103C0800624D22464FF400512846FEF7DEFC22465C
:103C18004FF400412846FEF7D8FC01224FF48041BA
:103C28002846FEF7D2FCA1E7574B1B6800245C63CB
:103C38009C63544A5289DA63544D22464FF400512A
:103C48002846FEF7C2FC22464FF400412846FEF7FC
:103C5800BCFC01224FF480412846FEF7B6FC85E7FC
:103C6800494B1B6800245C639C63464A5289DA63AB
:103C7800464D22464FF480412846FEF7A6FC2246D0
:103C88004FF400412846FEF7A0FC01224FF40051F2
:103C98002846FEF79AFC69E73D4C0022114620466B
:103CA800FFF7FEF9002204212046FFF7F9F9002268
:103CB80008212046FFF7F4F9314B00229A8455E792
:103CC800013B052B00F2BA80DFE803F01F643B9C40
:103CD80003802D4B1B6800245C632A4A52899A632F
:103CE800DC632A4D22464FF480412846FEF76DFCDE
:103CF80022464FF400412846FEF767FC01224FF4A4
:103D080000512846FEF761FC36E71F4B1B6800246C
:103D18005C631C4A52899A63DC631C4D22464FF44B
:103D280000512846FEF751FC22464FF480412846B0
:103D3800FEF74BFC01224FF400412846FEF745FCF4
:103D48001AE7114B1B680F4A52895A6300249C6377
:103D5800DC630E4D22464FF400512846FEF735FC31
:103D680022464FF480412846FEF72FFC01224FF4EB
:103D780000412846FEF729FCFEE600BF0008024085
:103D8800280200205C020020980100200004024064
:103D980000000140334B1B68334A52895A630024A0
:103DA8009C63DC63314D22464FF400512846FEF7F0
:103DB8000CFC22464FF400412846FEF706FC01227F
:103DC8004FF480412846FEF700FCD5E6254B1B68DA
:103DD80000245C639C63244A5289DA63234D22469B
:103DE8004FF400512846FEF7F0FB22464FF40041FD
:103DF8002846FEF7EAFB01224FF480412846FEF7E9
:103E0800E4FBB9E6174B1B6800245C639C63164A05
:103E18005289DA63154D22464FF480412846FEF751
:103E2800D4FB22464FF400412846FEF7CEFB012280
:103E38004FF400512846FEF7C8FB9DE60C4C0022C3
:103E480011462046FFF72CF9002204212046FFF7EF
:103E580027F9002208212046FFF722F9054B002206
:103E68009A8489E6980100205C0200200004024040
:103E7800000001402802002030B419480188194B7D
:103E8800DA69891AD96042881C6A121B1A61848807
:103E98005D6A641B9C60C0885861134BDB78013BEA
:103EA800052B07D8DFE803F008100C180314224488
:103EB8000C4B5A6030BC704721440A4B5960F9E7F3
:103EC8002244084B5A60F5E70A44064B5A60F1E76A
:103ED8000A44044B5A60EDE72244024B5A60E9E772
:103EE8001C0200200C0000202802002010B5124CF3
:103EF800012200212046FFF7D3F8012204212046A1
:103F0800FFF7CEF8012208212046FFF7C9F80B4B2E
:103F180001229A701B78934204D0023BDBB2012B3A
:103F280006D910BD054A1421118250215161F4E7C8
:103F3800034B044A1A60F4E7000001405C020020C9
:103F4800A40000200000FA4370B5194D00246C81CC
:103F5800184B1B685C639C63DC63174E2246214642
:103F68003046FFF79DF8224604213046FFF798F8BF
:103F7800224608213046FFF793F82C826C61AC701A
:103F880001232B72EC81AC810C4B1C855C859C84D5
:103F98005C840B4B00229A605A609A625A64DA6118
:103FA8001A60DA629A615A611A641A61DA6370BD3A
:103FB8005C02002098010020000001402802002037
:103FC800A40000201A4B1A78931EDBB2012B15D9D6
:103FD800012A1DD0164B1B8A502B02D9144B502294
:103FE8001A82144B93ED007ADFED137AB4EEE77A78
:103FF800F1EE10FA01DDC3ED007A70470D4BD3EDF9
:10400800007AB2EE047A77EE877AC3ED007ADFE7BA
:1040180007490B8A01339AB20A8241F2941303FBCF
:1040280002F3064A82FB03235B114B61D2E700BF10
:104038005C020020A400002000401C451F85EB51B5
:104048001A4B1A78931EDBB2012B15D9012A1DD001
:10405800164B1B8A092B02D8144B0A221A82144BBE
:1040680093ED007ADFED137AB4EEE77AF1EE10FA09
:1040780001D5C3ED007A70470D4BD3ED007AB2EE4F
:10408800047A77EEC77AC3ED007ADFE707490B8A2F
:10409800013B9AB20A8241F2941303FB02F3064AE7
:1040A80082FB03235B114B61D2E700BF5C02002057
:1040B800A4000020000096431F85EB51064B9B6926
:1040C800012B04D0044B01229A61DA617047024B3C
:1040D80000229A61DA6170475C02002008B520214D
:1040E8002F48FEF76BFA10B92E4B1B884BB30221F1
:1040F8002D48FEF763FA10B92A4B1B8853B34FF4C7
:1041080080612948FEF75AFA10B9264B1B8853B329
:104118004FF400612448FEF751FA10B9214B1B886F
:1041280053B34FF480512048FEF748FA10B91D4B9D
:104138001B8853B31B4B1B8813B1013B194A1380CF
:1041480008BD1A48FFF77EFBFFF7D0FE154B142277
:104158001A80CCE71648FFF775FBFFF7F5FE114B01
:1041680014221A80CBE71348FFF76CFBFFF72AFFEE
:104178000C4B14221A80CBE70F48FFF763FBFFF7BD
:104188005FFF084B14221A80CBE70C48FFF75AFB55
:10419800FFF7DAFEFFF792FF024B14221A80C9E7F5
:1041A80000080240EC00002000040240A44300087C
:1041B800C8430008EC4300081044000834440008D1
:1041C800DFF834D0002103E00C4B5B584350043136
:1041D8000B480C4B42189A42F6D30B4A02E00023D4
:1041E80042F8043B094B9A42F9D3FFF743FA00F02F
:1041F80011F8FCF7A7FD7047000002206C44000886
:10420800000000203C0000203C0000207C02002030
:10421800FEE7000070B50D4E0D4CA41BA410002540
:10422800A54209D10B4E0C4C00F020F8A41BA41099
:104238000025A54205D170BD56F8253098470135AF
:10424800EEE756F8253098470135F2E76444000850
:1042580064440008644400086844000802440346B3
:10426800934200D1704703F8011BF9E7F8B500BF86
:10427800F8BC08BC9E467047F8B500BFF8BC08BC3F
:044288009E46704797
:10428C006572726F7220636F64653A68616C6C5F03
:10429C00646D615F6572726F72210D0A000000001F
:1042AC006572726F7220636F64653A68616C6C5FE3
:1042BC00626173655F73746172745F69745F657258
:1042CC00726F72210D0A20004144432056414C5517
:1042DC00452049533A202564206D567C20256420C6
:1042EC006D567C202564206D567C202564206D56EF
:1042FC007C202564206D563B20202020202020206F
:10430C002020202054494D204343522056414C55E7
:10431C004520495320256420256420256420202035
:10432C002020202020202020202068616C6C5374D9
:10433C006174652069733A20256420202020202098
:10434C002020202020202048616C6C207374617424
:10435C0075732069732025642025642025642063EF
:10436C0074726C206D6F6465203A25640D0A000030
:10437C0000061016000610160000000000000000D9
:10438C0001020304060708090000000001020304EF
:10439C00306200003078000072756E2A2A2A2A2AB0
:1043AC002A2A2A2A2A2A2A2A2A2A2A2A2A2A2A2A61
:1043BC002A2A2A2A2A210D0A0000000073746F7021
:1043CC0021212121212121212121212121212121D1
:1043DC0021212121212121212121210D0A0000004F
:1043EC007570212B2B2B2B2B2B2B2B2B2B2B2B2B8C
:1043FC002B2B2B2B2B2B2B2B2B2B2B2B2B2B0D0A40
:10440C0000000000646F776E212D2D2D2D2D2D2D8C
:10441C002D2D2D2D2D2D2D2D2D2D2D2D2D2D2D2DC0
:10442C002D2D2D2D0D0A0000646972217C7C7C7C65
:10443C007C7C7C7C7C7C7C7C7C7C7C7C7C7C7C7CB0
:10444C007C7C7C7C7C7C7C7C7C7C7C0D0A000000F5
:08445C0088C5FF7F010000008C
:04446400AD0100089E
:0444680089010008BE
:10446C0001000000100000000024F4000000000017
:10447C000000000000000000000000000000000030
:10448C000000000000000000000000000000000020
:0C449C00E8030000180000000000000011
:04000005080041C9E5
:00000001FF
